{
  "_format": "hh-sol-artifact-1",
  "contractName": "StakingReward",
  "sourceName": "contracts/StakingReward.sol",
  "abi": [
    {
      "inputs": [
        {
          "internalType": "address",
          "name": "_rewardToken",
          "type": "address"
        },
        {
          "internalType": "address",
          "name": "_stakingToken",
          "type": "address"
        }
      ],
      "stateMutability": "nonpayable",
      "type": "constructor"
    },
    {
      "inputs": [],
      "name": "InvalidAddress",
      "type": "error"
    },
    {
      "inputs": [],
      "name": "needMoreThanZero",
      "type": "error"
    },
    {
      "anonymous": false,
      "inputs": [
        {
          "indexed": false,
          "internalType": "address",
          "name": "user",
          "type": "address"
        },
        {
          "indexed": false,
          "internalType": "uint256",
          "name": "amount",
          "type": "uint256"
        }
      ],
      "name": "staked",
      "type": "event"
    },
    {
      "anonymous": false,
      "inputs": [
        {
          "indexed": false,
          "internalType": "address",
          "name": "user",
          "type": "address"
        },
        {
          "indexed": false,
          "internalType": "uint256",
          "name": "amount",
          "type": "uint256"
        }
      ],
      "name": "withdrawn",
      "type": "event"
    },
    {
      "inputs": [],
      "name": "LastTimeReward",
      "outputs": [
        {
          "internalType": "uint256",
          "name": "",
          "type": "uint256"
        }
      ],
      "stateMutability": "view",
      "type": "function"
    },
    {
      "inputs": [],
      "name": "RewardPerToken",
      "outputs": [
        {
          "internalType": "uint256",
          "name": "",
          "type": "uint256"
        }
      ],
      "stateMutability": "view",
      "type": "function"
    },
    {
      "inputs": [],
      "name": "RewardToken",
      "outputs": [
        {
          "internalType": "contract IERC20",
          "name": "",
          "type": "address"
        }
      ],
      "stateMutability": "view",
      "type": "function"
    },
    {
      "inputs": [],
      "name": "StakingToken",
      "outputs": [
        {
          "internalType": "contract IERC20",
          "name": "",
          "type": "address"
        }
      ],
      "stateMutability": "view",
      "type": "function"
    },
    {
      "inputs": [
        {
          "internalType": "address",
          "name": "",
          "type": "address"
        }
      ],
      "name": "balance",
      "outputs": [
        {
          "internalType": "uint256",
          "name": "",
          "type": "uint256"
        }
      ],
      "stateMutability": "view",
      "type": "function"
    },
    {
      "inputs": [
        {
          "internalType": "address",
          "name": "_user",
          "type": "address"
        }
      ],
      "name": "earned",
      "outputs": [
        {
          "internalType": "uint256",
          "name": "",
          "type": "uint256"
        }
      ],
      "stateMutability": "view",
      "type": "function"
    },
    {
      "inputs": [],
      "name": "lastUpdateTime",
      "outputs": [
        {
          "internalType": "uint256",
          "name": "",
          "type": "uint256"
        }
      ],
      "stateMutability": "view",
      "type": "function"
    },
    {
      "inputs": [],
      "name": "periodFinish",
      "outputs": [
        {
          "internalType": "uint256",
          "name": "",
          "type": "uint256"
        }
      ],
      "stateMutability": "view",
      "type": "function"
    },
    {
      "inputs": [],
      "name": "rewarDuration",
      "outputs": [
        {
          "internalType": "uint256",
          "name": "",
          "type": "uint256"
        }
      ],
      "stateMutability": "view",
      "type": "function"
    },
    {
      "inputs": [
        {
          "internalType": "address",
          "name": "",
          "type": "address"
        }
      ],
      "name": "reward",
      "outputs": [
        {
          "internalType": "uint256",
          "name": "",
          "type": "uint256"
        }
      ],
      "stateMutability": "view",
      "type": "function"
    },
    {
      "inputs": [
        {
          "internalType": "address",
          "name": "",
          "type": "address"
        }
      ],
      "name": "rewardPerTokenPaid",
      "outputs": [
        {
          "internalType": "uint256",
          "name": "",
          "type": "uint256"
        }
      ],
      "stateMutability": "view",
      "type": "function"
    },
    {
      "inputs": [],
      "name": "rewardPerTokenStored",
      "outputs": [
        {
          "internalType": "uint256",
          "name": "",
          "type": "uint256"
        }
      ],
      "stateMutability": "view",
      "type": "function"
    },
    {
      "inputs": [],
      "name": "rewardRate",
      "outputs": [
        {
          "internalType": "uint256",
          "name": "",
          "type": "uint256"
        }
      ],
      "stateMutability": "view",
      "type": "function"
    },
    {
      "inputs": [
        {
          "internalType": "uint256",
          "name": "_amount",
          "type": "uint256"
        }
      ],
      "name": "stake",
      "outputs": [],
      "stateMutability": "nonpayable",
      "type": "function"
    },
    {
      "inputs": [],
      "name": "totalSupply",
      "outputs": [
        {
          "internalType": "uint256",
          "name": "",
          "type": "uint256"
        }
      ],
      "stateMutability": "view",
      "type": "function"
    },
    {
      "inputs": [
        {
          "internalType": "uint256",
          "name": "_amount",
          "type": "uint256"
        }
      ],
      "name": "withdraw",
      "outputs": [],
      "stateMutability": "nonpayable",
      "type": "function"
    }
  ],
  "bytecode": "0x60c06040523480156200001157600080fd5b5060405162000fc138038062000fc18339818101604052810190620000379190620001b1565b600073ffffffffffffffffffffffffffffffffffffffff168273ffffffffffffffffffffffffffffffffffffffff1614806200009f5750600073ffffffffffffffffffffffffffffffffffffffff168173ffffffffffffffffffffffffffffffffffffffff16145b15620000d7576040517fe6c4247b00000000000000000000000000000000000000000000000000000000815260040160405180910390fd5b8073ffffffffffffffffffffffffffffffffffffffff1660808173ffffffffffffffffffffffffffffffffffffffff16815250508173ffffffffffffffffffffffffffffffffffffffff1660a08173ffffffffffffffffffffffffffffffffffffffff16815250505050620001f8565b600080fd5b600073ffffffffffffffffffffffffffffffffffffffff82169050919050565b600062000179826200014c565b9050919050565b6200018b816200016c565b81146200019757600080fd5b50565b600081519050620001ab8162000180565b92915050565b60008060408385031215620001cb57620001ca62000147565b5b6000620001db858286016200019a565b9250506020620001ee858286016200019a565b9150509250929050565b60805160a051610d956200022c600039600061099901526000818161057c0152818161086601526109450152610d956000f3fe608060405234801561001057600080fd5b50600436106100ff5760003560e01c8063a694fc3a11610097578063df136d6511610066578063df136d651461029e578063e3d670d7146102bc578063ebe2b12b146102ec578063f1e9f1e51461030a576100ff565b8063a694fc3a14610228578063be5af96614610244578063c8f33c9114610262578063d012200014610280576100ff565b80636353586b116100d35780636353586b1461018c578063653a8da1146101bc5780636c031fb6146101ec5780637b0a47ee1461020a576100ff565b80628cc2621461010457806318160ddd146101345780632e1a7d4d1461015257806348e1ac4d1461016e575b600080fd5b61011e60048036038101906101199190610a1e565b610328565b60405161012b9190610a64565b60405180910390f35b61013c61042a565b6040516101499190610a64565b60405180910390f35b61016c60048036038101906101679190610aab565b610430565b005b610176610657565b6040516101839190610a64565b60405180910390f35b6101a660048036038101906101a19190610a1e565b610674565b6040516101b39190610a64565b60405180910390f35b6101d660048036038101906101d19190610a1e565b61068c565b6040516101e39190610a64565b60405180910390f35b6101f46106a4565b6040516102019190610a64565b60405180910390f35b610212610714565b60405161021f9190610a64565b60405180910390f35b610242600480360381019061023d9190610aab565b61071a565b005b61024c610943565b6040516102599190610b37565b60405180910390f35b61026a610967565b6040516102779190610a64565b60405180910390f35b61028861096d565b6040516102959190610a64565b60405180910390f35b6102a6610973565b6040516102b39190610a64565b60405180910390f35b6102d660048036038101906102d19190610a1e565b610979565b6040516102e39190610a64565b60405180910390f35b6102f4610991565b6040516103019190610a64565b60405180910390f35b610312610997565b60405161031f9190610b37565b60405180910390f35b6000600360008373ffffffffffffffffffffffffffffffffffffffff1673ffffffffffffffffffffffffffffffffffffffff16815260200190815260200160002054670de0b6b3a7640000600260008573ffffffffffffffffffffffffffffffffffffffff1673ffffffffffffffffffffffffffffffffffffffff168152602001908152602001600020546103bb6106a4565b600160008773ffffffffffffffffffffffffffffffffffffffff1673ffffffffffffffffffffffffffffffffffffffff168152602001908152602001600020546104059190610b81565b61040f9190610bc3565b6104199190610c26565b6104239190610c57565b9050919050565b60005481565b806000810361046b576040517f190fe9af00000000000000000000000000000000000000000000000000000000815260040160405180910390fd5b336104746106a4565b60068190555061048381610328565b600360003373ffffffffffffffffffffffffffffffffffffffff1673ffffffffffffffffffffffffffffffffffffffff16815260200190815260200160002081905550600654600260008373ffffffffffffffffffffffffffffffffffffffff1673ffffffffffffffffffffffffffffffffffffffff1681526020019081526020016000208190555082600160003373ffffffffffffffffffffffffffffffffffffffff1673ffffffffffffffffffffffffffffffffffffffff168152602001908152602001600020600082825461055b9190610bc3565b92505081905550826000808282546105739190610bc3565b925050819055507f000000000000000000000000000000000000000000000000000000000000000073ffffffffffffffffffffffffffffffffffffffff1663a9059cbb33856040518363ffffffff1660e01b81526004016105d5929190610c9a565b6020604051808303816000875af11580156105f4573d6000803e3d6000fd5b505050506040513d601f19601f820116820180604052508101906106189190610cfb565b507f6fb24f3ad0678f9d138e80b17293be051d87911eb34e9e60f0d1b9c3805e885a338460405161064a929190610c9a565b60405180910390a1505050565b600080600754905080421161066c578061066e565b425b91505090565b60036020528060005260406000206000915090505481565b60026020528060005260406000206000915090505481565b600080600054036106b9576006549050610711565b60006008546106c6610657565b6106d09190610bc3565b9050600054670de0b6b3a7640000600554836106ec9190610b81565b6106f69190610b81565b6107009190610c26565b60065461070d9190610c57565b9150505b90565b60045481565b8060008103610755576040517f190fe9af00000000000000000000000000000000000000000000000000000000815260040160405180910390fd5b3361075e6106a4565b60068190555061076d81610328565b600360003373ffffffffffffffffffffffffffffffffffffffff1673ffffffffffffffffffffffffffffffffffffffff16815260200190815260200160002081905550600654600260008373ffffffffffffffffffffffffffffffffffffffff1673ffffffffffffffffffffffffffffffffffffffff1681526020019081526020016000208190555082600160003373ffffffffffffffffffffffffffffffffffffffff1673ffffffffffffffffffffffffffffffffffffffff16815260200190815260200160002060008282546108459190610c57565b925050819055508260008082825461085d9190610c57565b925050819055507f000000000000000000000000000000000000000000000000000000000000000073ffffffffffffffffffffffffffffffffffffffff166323b872dd3330866040518463ffffffff1660e01b81526004016108c193929190610d28565b6020604051808303816000875af11580156108e0573d6000803e3d6000fd5b505050506040513d601f19601f820116820180604052508101906109049190610cfb565b507f8f169816223f856d6f6a5945e3f7c520efe6c139d4152b6bb65e454babb2f2cb3384604051610936929190610c9a565b60405180910390a1505050565b7f000000000000000000000000000000000000000000000000000000000000000081565b60085481565b60055481565b60065481565b60016020528060005260406000206000915090505481565b60075481565b7f000000000000000000000000000000000000000000000000000000000000000081565b600080fd5b600073ffffffffffffffffffffffffffffffffffffffff82169050919050565b60006109eb826109c0565b9050919050565b6109fb816109e0565b8114610a0657600080fd5b50565b600081359050610a18816109f2565b92915050565b600060208284031215610a3457610a336109bb565b5b6000610a4284828501610a09565b91505092915050565b6000819050919050565b610a5e81610a4b565b82525050565b6000602082019050610a796000830184610a55565b92915050565b610a8881610a4b565b8114610a9357600080fd5b50565b600081359050610aa581610a7f565b92915050565b600060208284031215610ac157610ac06109bb565b5b6000610acf84828501610a96565b91505092915050565b6000819050919050565b6000610afd610af8610af3846109c0565b610ad8565b6109c0565b9050919050565b6000610b0f82610ae2565b9050919050565b6000610b2182610b04565b9050919050565b610b3181610b16565b82525050565b6000602082019050610b4c6000830184610b28565b92915050565b7f4e487b7100000000000000000000000000000000000000000000000000000000600052601160045260246000fd5b6000610b8c82610a4b565b9150610b9783610a4b565b9250828202610ba581610a4b565b91508282048414831517610bbc57610bbb610b52565b5b5092915050565b6000610bce82610a4b565b9150610bd983610a4b565b9250828203905081811115610bf157610bf0610b52565b5b92915050565b7f4e487b7100000000000000000000000000000000000000000000000000000000600052601260045260246000fd5b6000610c3182610a4b565b9150610c3c83610a4b565b925082610c4c57610c4b610bf7565b5b828204905092915050565b6000610c6282610a4b565b9150610c6d83610a4b565b9250828201905080821115610c8557610c84610b52565b5b92915050565b610c94816109e0565b82525050565b6000604082019050610caf6000830185610c8b565b610cbc6020830184610a55565b9392505050565b60008115159050919050565b610cd881610cc3565b8114610ce357600080fd5b50565b600081519050610cf581610ccf565b92915050565b600060208284031215610d1157610d106109bb565b5b6000610d1f84828501610ce6565b91505092915050565b6000606082019050610d3d6000830186610c8b565b610d4a6020830185610c8b565b610d576040830184610a55565b94935050505056fea2646970667358221220841001c4fb77a5733103b68cca602f73c14eae1d617419bc4608501e2e652ac064736f6c63430008140033",
  "linkReferences": {},
  "deployedLinkReferences": {}
}